{
  "contractName": "MyContract",
  "abi": [
    {
      "inputs": [],
      "stateMutability": "nonpayable",
      "type": "constructor"
    },
    {
      "inputs": [],
      "name": "count",
      "outputs": [
        {
          "internalType": "uint256",
          "name": "",
          "type": "uint256"
        }
      ],
      "stateMutability": "view",
      "type": "function",
      "constant": true
    },
    {
      "inputs": [],
      "name": "name",
      "outputs": [
        {
          "internalType": "string",
          "name": "",
          "type": "string"
        }
      ],
      "stateMutability": "view",
      "type": "function",
      "constant": true
    },
    {
      "inputs": [
        {
          "internalType": "string",
          "name": "_name",
          "type": "string"
        }
      ],
      "name": "setName",
      "outputs": [],
      "stateMutability": "nonpayable",
      "type": "function"
    },
    {
      "inputs": [],
      "name": "incrementCount",
      "outputs": [],
      "stateMutability": "nonpayable",
      "type": "function"
    }
  ],
  "bytecode": "0x608060405234801561001057600080fd5b506040518060400160405280601881526020017f426c6f636b636861696e204578616d20506c6174666f726d00000000000000008152506000908051906020019061005c92919061006a565b50600060018190555061016e565b8280546100769061010d565b90600052602060002090601f01602090048101928261009857600085556100df565b82601f106100b157805160ff19168380011785556100df565b828001600101855582156100df579182015b828111156100de5782518255916020019190600101906100c3565b5b5090506100ec91906100f0565b5090565b5b808211156101095760008160009055506001016100f1565b5090565b6000600282049050600182168061012557607f821691505b602082108114156101395761013861013f565b5b50919050565b7f4e487b7100000000000000000000000000000000000000000000000000000000600052602260045260246000fd5b6105728061017d6000396000f3fe608060405234801561001057600080fd5b506004361061004c5760003560e01c806306661abd1461005157806306fdde031461006f578063c47f00271461008d578063e5071b8e146100a9575b600080fd5b6100596100b3565b6040516100669190610332565b60405180910390f35b6100776100b9565b6040516100849190610310565b60405180910390f35b6100a760048036038101906100a29190610287565b610147565b005b6100b1610161565b005b60015481565b600080546100c69061046c565b80601f01602080910402602001604051908101604052809291908181526020018280546100f29061046c565b801561013f5780601f106101145761010080835404028352916020019161013f565b820191906000526020600020905b81548152906001019060200180831161012257829003601f168201915b505050505081565b806000908051906020019061015d92919061017c565b5050565b600180600082825461017391906103ca565b92505081905550565b8280546101889061046c565b90600052602060002090601f0160209004810192826101aa57600085556101f1565b82601f106101c357805160ff19168380011785556101f1565b828001600101855582156101f1579182015b828111156101f05782518255916020019190600101906101d5565b5b5090506101fe9190610202565b5090565b5b8082111561021b576000816000905550600101610203565b5090565b600061023261022d8461037e565b61034d565b90508281526020810184848401111561024a57600080fd5b61025584828561042a565b509392505050565b600082601f83011261026e57600080fd5b813561027e84826020860161021f565b91505092915050565b60006020828403121561029957600080fd5b600082013567ffffffffffffffff8111156102b357600080fd5b6102bf8482850161025d565b91505092915050565b60006102d3826103ae565b6102dd81856103b9565b93506102ed818560208601610439565b6102f68161052b565b840191505092915050565b61030a81610420565b82525050565b6000602082019050818103600083015261032a81846102c8565b905092915050565b60006020820190506103476000830184610301565b92915050565b6000604051905081810181811067ffffffffffffffff82111715610374576103736104fc565b5b8060405250919050565b600067ffffffffffffffff821115610399576103986104fc565b5b601f19601f8301169050602081019050919050565b600081519050919050565b600082825260208201905092915050565b60006103d582610420565b91506103e083610420565b9250827fffffffffffffffffffffffffffffffffffffffffffffffffffffffffffffffff038211156104155761041461049e565b5b828201905092915050565b6000819050919050565b82818337600083830152505050565b60005b8381101561045757808201518184015260208101905061043c565b83811115610466576000848401525b50505050565b6000600282049050600182168061048457607f821691505b60208210811415610498576104976104cd565b5b50919050565b7f4e487b7100000000000000000000000000000000000000000000000000000000600052601160045260246000fd5b7f4e487b7100000000000000000000000000000000000000000000000000000000600052602260045260246000fd5b7f4e487b7100000000000000000000000000000000000000000000000000000000600052604160045260246000fd5b6000601f19601f830116905091905056fea26469706673582212200d31d32df8f144a76beb5ab735e100f4e3cc6581f6b3f364a7443b977f18bf8c64736f6c63430008000033",
  "immutableReferences": {},
  "source": "// SPDX-License-Identifier: UNLICENSED\r\n\r\npragma solidity ^0.8.0;\r\n\r\ncontract MyContract {\r\n    string public name;\r\n    uint public count;\r\n\r\n    constructor() {\r\n        name = \"Blockchain Exam Platform\";\r\n        count = 0;\r\n    }\r\n\r\n    function setName(string memory _name) public {\r\n        name = _name;\r\n    }\r\n\r\n    function incrementCount() public {\r\n        count += 1;\r\n    }\r\n}\r\n",
  "sourcePath": "D:\\Examination\\contracts\\MyContract.sol",
  "compiler": {
    "name": "solc",
    "version": "0.8.0+commit.c7dfd78e.Emscripten.clang"
  },
  "schemaVersion": "3.4.16",
  "updatedAt": "2024-09-04T13:23:34.517Z",
  "networkType": "ethereum",
  "devdoc": {
    "kind": "dev",
    "methods": {},
    "version": 1
  },
  "userdoc": {
    "kind": "user",
    "methods": {},
    "version": 1
  }
}